{
  "contractName": "MultiSigWallet",
  "abi": [
    {
      "inputs": [
        {
          "internalType": "address[]",
          "name": "_owners",
          "type": "address[]"
        },
        {
          "internalType": "uint256",
          "name": "_numConfirmationsRequired",
          "type": "uint256"
        }
      ],
      "payable": false,
      "stateMutability": "nonpayable",
      "type": "constructor"
    },
    {
      "anonymous": false,
      "inputs": [
        {
          "indexed": true,
          "internalType": "address",
          "name": "owner",
          "type": "address"
        },
        {
          "indexed": true,
          "internalType": "uint256",
          "name": "txIndex",
          "type": "uint256"
        }
      ],
      "name": "ConfirmTransaction",
      "type": "event"
    },
    {
      "anonymous": false,
      "inputs": [
        {
          "indexed": true,
          "internalType": "address",
          "name": "sender",
          "type": "address"
        },
        {
          "indexed": false,
          "internalType": "uint256",
          "name": "amount",
          "type": "uint256"
        },
        {
          "indexed": false,
          "internalType": "uint256",
          "name": "balance",
          "type": "uint256"
        }
      ],
      "name": "Deposit",
      "type": "event"
    },
    {
      "anonymous": false,
      "inputs": [
        {
          "indexed": true,
          "internalType": "address",
          "name": "owner",
          "type": "address"
        },
        {
          "indexed": true,
          "internalType": "uint256",
          "name": "txIndex",
          "type": "uint256"
        }
      ],
      "name": "ExecuteTransaction",
      "type": "event"
    },
    {
      "anonymous": false,
      "inputs": [
        {
          "indexed": true,
          "internalType": "address",
          "name": "owner",
          "type": "address"
        },
        {
          "indexed": true,
          "internalType": "uint256",
          "name": "txIndex",
          "type": "uint256"
        }
      ],
      "name": "RevokeConfirmation",
      "type": "event"
    },
    {
      "anonymous": false,
      "inputs": [
        {
          "indexed": true,
          "internalType": "address",
          "name": "owner",
          "type": "address"
        },
        {
          "indexed": true,
          "internalType": "uint256",
          "name": "txIndex",
          "type": "uint256"
        },
        {
          "indexed": true,
          "internalType": "address",
          "name": "to",
          "type": "address"
        },
        {
          "indexed": false,
          "internalType": "uint256",
          "name": "value",
          "type": "uint256"
        },
        {
          "indexed": false,
          "internalType": "bytes",
          "name": "data",
          "type": "bytes"
        }
      ],
      "name": "SubmitTransaction",
      "type": "event"
    },
    {
      "payable": true,
      "stateMutability": "payable",
      "type": "fallback"
    },
    {
      "constant": true,
      "inputs": [
        {
          "internalType": "address",
          "name": "",
          "type": "address"
        }
      ],
      "name": "isOwner",
      "outputs": [
        {
          "internalType": "bool",
          "name": "",
          "type": "bool"
        }
      ],
      "payable": false,
      "stateMutability": "view",
      "type": "function"
    },
    {
      "constant": true,
      "inputs": [],
      "name": "numConfirmationsRequired",
      "outputs": [
        {
          "internalType": "uint256",
          "name": "",
          "type": "uint256"
        }
      ],
      "payable": false,
      "stateMutability": "view",
      "type": "function"
    },
    {
      "constant": true,
      "inputs": [
        {
          "internalType": "uint256",
          "name": "",
          "type": "uint256"
        }
      ],
      "name": "owners",
      "outputs": [
        {
          "internalType": "address",
          "name": "",
          "type": "address"
        }
      ],
      "payable": false,
      "stateMutability": "view",
      "type": "function"
    },
    {
      "constant": true,
      "inputs": [
        {
          "internalType": "uint256",
          "name": "",
          "type": "uint256"
        }
      ],
      "name": "transactions",
      "outputs": [
        {
          "internalType": "address",
          "name": "to",
          "type": "address"
        },
        {
          "internalType": "uint256",
          "name": "value",
          "type": "uint256"
        },
        {
          "internalType": "bytes",
          "name": "data",
          "type": "bytes"
        },
        {
          "internalType": "bool",
          "name": "executed",
          "type": "bool"
        },
        {
          "internalType": "uint256",
          "name": "numConfirmations",
          "type": "uint256"
        }
      ],
      "payable": false,
      "stateMutability": "view",
      "type": "function"
    },
    {
      "constant": false,
      "inputs": [
        {
          "internalType": "address",
          "name": "_to",
          "type": "address"
        },
        {
          "internalType": "uint256",
          "name": "_value",
          "type": "uint256"
        },
        {
          "internalType": "bytes",
          "name": "_data",
          "type": "bytes"
        }
      ],
      "name": "submitTransaction",
      "outputs": [],
      "payable": true,
      "stateMutability": "payable",
      "type": "function"
    },
    {
      "constant": false,
      "inputs": [
        {
          "internalType": "uint256",
          "name": "_txIndex",
          "type": "uint256"
        }
      ],
      "name": "confirmTransaction",
      "outputs": [],
      "payable": false,
      "stateMutability": "nonpayable",
      "type": "function"
    },
    {
      "constant": false,
      "inputs": [
        {
          "internalType": "uint256",
          "name": "_txIndex",
          "type": "uint256"
        }
      ],
      "name": "executeTransaction",
      "outputs": [],
      "payable": false,
      "stateMutability": "nonpayable",
      "type": "function"
    },
    {
      "constant": false,
      "inputs": [
        {
          "internalType": "uint256",
          "name": "_txIndex",
          "type": "uint256"
        }
      ],
      "name": "revokeConfirmation",
      "outputs": [],
      "payable": false,
      "stateMutability": "nonpayable",
      "type": "function"
    },
    {
      "constant": true,
      "inputs": [
        {
          "internalType": "uint256",
          "name": "_txIndex",
          "type": "uint256"
        }
      ],
      "name": "fetchConfirmations",
      "outputs": [
        {
          "internalType": "uint256",
          "name": "",
          "type": "uint256"
        }
      ],
      "payable": false,
      "stateMutability": "view",
      "type": "function"
    }
  ],
  "bytecode": "0x60806040523480156200001157600080fd5b50604051620017e8380380620017e8833981810160405260408110156200003757600080fd5b81019080805160405193929190846401000000008211156200005857600080fd5b838201915060208201858111156200006f57600080fd5b82518660208202830111640100000000821117156200008d57600080fd5b8083526020830192505050908051906020019060200280838360005b83811015620000c6578082015181840152602081019050620000a9565b5050505090500160405260200180519060200190929190505050600082511162000158576040517f08c379a000000000000000000000000000000000000000000000000000000000815260040180806020018281038252600f8152602001807f6f776e657273207265717569726564000000000000000000000000000000000081525060200191505060405180910390fd5b6000811180156200016a575081518111155b620001c1576040517f08c379a0000000000000000000000000000000000000000000000000000000008152600401808060200182810382526028815260200180620017c06028913960400191505060405180910390fd5b60008090505b82518110156200041c576000838281518110620001e057fe5b60200260200101519050600073ffffffffffffffffffffffffffffffffffffffff168173ffffffffffffffffffffffffffffffffffffffff1614156200028e576040517f08c379a000000000000000000000000000000000000000000000000000000000815260040180806020018281038252600d8152602001807f696e76616c6964206f776e65720000000000000000000000000000000000000081525060200191505060405180910390fd5b600260008273ffffffffffffffffffffffffffffffffffffffff1673ffffffffffffffffffffffffffffffffffffffff16815260200190815260200160002060009054906101000a900460ff16156200034f576040517f08c379a00000000000000000000000000000000000000000000000000000000081526004018080602001828103825260108152602001807f6f776e6572206e6f7420756e697175650000000000000000000000000000000081525060200191505060405180910390fd5b6001600260008373ffffffffffffffffffffffffffffffffffffffff1673ffffffffffffffffffffffffffffffffffffffff16815260200190815260200160002060006101000a81548160ff02191690831515021790555060018190806001815401808255809150509060018203906000526020600020016000909192909190916101000a81548173ffffffffffffffffffffffffffffffffffffffff021916908373ffffffffffffffffffffffffffffffffffffffff16021790555050508080600101915050620001c7565b5080600381905550505061138a80620004366000396000f3fe6080604052600436106100865760003560e01c80639ace38c2116100595780639ace38c21461024c578063c01a8c841461034c578063c642747414610387578063d0549b851461046c578063ee22610b1461049757610086565b8063025e7c27146100de57806320ea8d86146101595780632f54bf6e14610194578063884cf2de146101fd575b3373ffffffffffffffffffffffffffffffffffffffff167f90890809c654f11d6e72a28fa60149770a0d11ec6c92319d6ceb2bb0a4ea1a153447604051808381526020018281526020019250505060405180910390a2005b3480156100ea57600080fd5b506101176004803603602081101561010157600080fd5b81019080803590602001909291905050506104d2565b604051808273ffffffffffffffffffffffffffffffffffffffff1673ffffffffffffffffffffffffffffffffffffffff16815260200191505060405180910390f35b34801561016557600080fd5b506101926004803603602081101561017c57600080fd5b810190808035906020019092919050505061050e565b005b3480156101a057600080fd5b506101e3600480360360208110156101b757600080fd5b81019080803573ffffffffffffffffffffffffffffffffffffffff169060200190929190505050610817565b604051808215151515815260200191505060405180910390f35b34801561020957600080fd5b506102366004803603602081101561022057600080fd5b8101908080359060200190929190505050610837565b6040518082815260200191505060405180910390f35b34801561025857600080fd5b506102856004803603602081101561026f57600080fd5b810190808035906020019092919050505061086a565b604051808673ffffffffffffffffffffffffffffffffffffffff1673ffffffffffffffffffffffffffffffffffffffff1681526020018581526020018060200184151515158152602001838152602001828103825285818151815260200191508051906020019080838360005b8381101561030d5780820151818401526020810190506102f2565b50505050905090810190601f16801561033a5780820380516001836020036101000a031916815260200191505b50965050505050505060405180910390f35b34801561035857600080fd5b506103856004803603602081101561036f57600080fd5b8101908080359060200190929190505050610972565b005b61046a6004803603606081101561039d57600080fd5b81019080803573ffffffffffffffffffffffffffffffffffffffff16906020019092919080359060200190929190803590602001906401000000008111156103e457600080fd5b8201836020820111156103f657600080fd5b8035906020019184600183028401116401000000008311171561041857600080fd5b91908080601f016020809104026020016040519081016040528093929190818152602001838380828437600081840152601f19601f820116905080830192505050505050509192919290505050610c97565b005b34801561047857600080fd5b50610481610ed8565b6040518082815260200191505060405180910390f35b3480156104a357600080fd5b506104d0600480360360208110156104ba57600080fd5b8101908080359060200190929190505050610ede565b005b600181815481106104df57fe5b906000526020600020016000915054906101000a900473ffffffffffffffffffffffffffffffffffffffff1681565b600260003373ffffffffffffffffffffffffffffffffffffffff1673ffffffffffffffffffffffffffffffffffffffff16815260200190815260200160002060009054906101000a900460ff1661056457600080fd5b8060008054905081106105df576040517f08c379a000000000000000000000000000000000000000000000000000000000815260040180806020018281038252601a8152602001807f5472616e73616374696f6e20646f6573206e6f7420657869737400000000000081525060200191505060405180910390fd5b81600081815481106105ed57fe5b906000526020600020906006020160030160009054906101000a900460ff161561067f576040517f08c379a000000000000000000000000000000000000000000000000000000000815260040180806020018281038252601c8152602001807f5472616e73616374696f6e20616c72656164792065786563757465640000000081525060200191505060405180910390fd5b600080848154811061068d57fe5b906000526020600020906006020190508060040160003373ffffffffffffffffffffffffffffffffffffffff1673ffffffffffffffffffffffffffffffffffffffff16815260200190815260200160002060009054906101000a900460ff1661075e576040517f08c379a00000000000000000000000000000000000000000000000000000000081526004018080602001828103825260198152602001807f5472616e73616374696f6e206e6f7420636f6e6669726d65640000000000000081525060200191505060405180910390fd5b60008160040160003373ffffffffffffffffffffffffffffffffffffffff1673ffffffffffffffffffffffffffffffffffffffff16815260200190815260200160002060006101000a81548160ff021916908315150217905550806005016000815480929190600190039190505550833373ffffffffffffffffffffffffffffffffffffffff167ff0dca620e2e81f7841d07bcc105e1704fb01475b278a9d4c236e1c62945edd5560405160405180910390a350505050565b60026020528060005260406000206000915054906101000a900460ff1681565b6000806000838154811061084757fe5b906000526020600020906006020190506000816005015490508092505050919050565b6000818154811061087757fe5b90600052602060002090600602016000915090508060000160009054906101000a900473ffffffffffffffffffffffffffffffffffffffff1690806001015490806002018054600181600116156101000203166002900480601f01602080910402602001604051908101604052809291908181526020018280546001816001161561010002031660029004801561094f5780601f106109245761010080835404028352916020019161094f565b820191906000526020600020905b81548152906001019060200180831161093257829003601f168201915b5050505050908060030160009054906101000a900460ff16908060050154905085565b600260003373ffffffffffffffffffffffffffffffffffffffff1673ffffffffffffffffffffffffffffffffffffffff16815260200190815260200160002060009054906101000a900460ff166109c857600080fd5b806000805490508110610a43576040517f08c379a000000000000000000000000000000000000000000000000000000000815260040180806020018281038252601a8152602001807f5472616e73616374696f6e20646f6573206e6f7420657869737400000000000081525060200191505060405180910390fd5b8160008181548110610a5157fe5b906000526020600020906006020160030160009054906101000a900460ff1615610ae3576040517f08c379a000000000000000000000000000000000000000000000000000000000815260040180806020018281038252601c8152602001807f5472616e73616374696f6e20616c72656164792065786563757465640000000081525060200191505060405180910390fd5b8260008181548110610af157fe5b906000526020600020906006020160040160003373ffffffffffffffffffffffffffffffffffffffff1673ffffffffffffffffffffffffffffffffffffffff16815260200190815260200160002060009054906101000a900460ff1615610bc0576040517f08c379a000000000000000000000000000000000000000000000000000000000815260040180806020018281038252601d8152602001807f5472616e73616374696f6e20616c726561647920636f6e6669726d656400000081525060200191505060405180910390fd5b6000808581548110610bce57fe5b9060005260206000209060060201905060018160040160003373ffffffffffffffffffffffffffffffffffffffff1673ffffffffffffffffffffffffffffffffffffffff16815260200190815260200160002060006101000a81548160ff0219169083151502179055508060050160008154809291906001019190505550843373ffffffffffffffffffffffffffffffffffffffff167f5cbe105e36805f7820e291f799d5794ff948af2a5f664e580382defb6339004160405160405180910390a35050505050565b600260003373ffffffffffffffffffffffffffffffffffffffff1673ffffffffffffffffffffffffffffffffffffffff16815260200190815260200160002060009054906101000a900460ff16610ced57600080fd5b60008080549050905060006040518060a001604052808673ffffffffffffffffffffffffffffffffffffffff16815260200185815260200184815260200160001515815260200160008152509080600181540180825580915050906001820390600052602060002090600602016000909192909190915060008201518160000160006101000a81548173ffffffffffffffffffffffffffffffffffffffff021916908373ffffffffffffffffffffffffffffffffffffffff160217905550602082015181600101556040820151816002019080519060200190610dd19291906112b0565b5060608201518160030160006101000a81548160ff021916908315150217905550608082015181600501555050508373ffffffffffffffffffffffffffffffffffffffff16813373ffffffffffffffffffffffffffffffffffffffff167fd5a05bf70715ad82a09a756320284a1b54c9ff74cd0f8cce6219e79b563fe59d86866040518083815260200180602001828103825283818151815260200191508051906020019080838360005b83811015610e97578082015181840152602081019050610e7c565b50505050905090810190601f168015610ec45780820380516001836020036101000a031916815260200191505b50935050505060405180910390a450505050565b60035481565b600260003373ffffffffffffffffffffffffffffffffffffffff1673ffffffffffffffffffffffffffffffffffffffff16815260200190815260200160002060009054906101000a900460ff16610f3457600080fd5b806000805490508110610faf576040517f08c379a000000000000000000000000000000000000000000000000000000000815260040180806020018281038252601a8152602001807f5472616e73616374696f6e20646f6573206e6f7420657869737400000000000081525060200191505060405180910390fd5b8160008181548110610fbd57fe5b906000526020600020906006020160030160009054906101000a900460ff161561104f576040517f08c379a000000000000000000000000000000000000000000000000000000000815260040180806020018281038252601c8152602001807f5472616e73616374696f6e20616c72656164792065786563757465640000000081525060200191505060405180910390fd5b600080848154811061105d57fe5b90600052602060002090600602019050600354816005015410156110e9576040517f08c379a000000000000000000000000000000000000000000000000000000000815260040180806020018281038252601a8152602001807f43616e6e6f742065786563757465207472616e73616374696f6e00000000000081525060200191505060405180910390fd5b60018160030160006101000a81548160ff02191690831515021790555060008160000160009054906101000a900473ffffffffffffffffffffffffffffffffffffffff1673ffffffffffffffffffffffffffffffffffffffff1682600101548360020160405180828054600181600116156101000203166002900480156111a75780601f106111855761010080835404028352918201916111a7565b820191906000526020600020905b815481529060010190602001808311611193575b505091505060006040518083038185875af1925050503d80600081146111e9576040519150601f19603f3d011682016040523d82523d6000602084013e6111ee565b606091505b5050905080611265576040517f08c379a00000000000000000000000000000000000000000000000000000000081526004018080602001828103825260128152602001807f7472616e73616374696f6e206661696c6564000000000000000000000000000081525060200191505060405180910390fd5b843373ffffffffffffffffffffffffffffffffffffffff167f5445f318f4f5fcfb66592e68e0cc5822aa15664039bd5f0ffde24c5a8142b1ac60405160405180910390a35050505050565b828054600181600116156101000203166002900490600052602060002090601f016020900481019282601f106112f157805160ff191683800117855561131f565b8280016001018555821561131f579182015b8281111561131e578251825591602001919060010190611303565b5b50905061132c9190611330565b5090565b61135291905b8082111561134e576000816000905550600101611336565b5090565b9056fea265627a7a723158202b1466da1c95cbc7f7284e6bf3a6aaba0b6b9f5da9cf466c6c26fb0e67af076964736f6c63430005100032696e76616c6964206e756d626572206f6620726571756972656420636f6e6669726d6174696f6e73",
  "source": "pragma solidity ^0.5.16;\r\n\r\ncontract MultiSigWallet {\r\n    \r\n    event Deposit(address indexed sender, uint amount, uint balance);\r\n    event SubmitTransaction(\r\n        address indexed owner,\r\n        uint indexed txIndex,\r\n        address indexed to,\r\n        uint value,\r\n        bytes data\r\n    );\r\n    \r\n    event ConfirmTransaction(address indexed owner, uint indexed txIndex);\r\n    event ExecuteTransaction(address indexed owner, uint indexed txIndex);\r\n    event RevokeConfirmation(address indexed owner, uint indexed txIndex);\r\n    \r\n    struct Transaction {\r\n        address to;\r\n        uint value;\r\n        bytes data;\r\n        bool executed;\r\n        mapping(address => bool) isConfirmed;\r\n        uint numConfirmations;\r\n    }\r\n    \r\n    Transaction[] public transactions;\r\n    \r\n    modifier onlyOwner() {\r\n        require(isOwner[msg.sender]);\r\n        _;\r\n    }\r\n    \r\n    modifier txExists(uint _txIndex) {\r\n        require(_txIndex < transactions.length, 'Transaction does not exist');\r\n        _;\r\n    }\r\n    \r\n    modifier notExecuted(uint _txIndex) {\r\n        require(!transactions[_txIndex].executed, 'Transaction already executed');\r\n        _;\r\n    }\r\n    \r\n    modifier notConfirmed(uint _txIndex) {\r\n        require(!transactions[_txIndex].isConfirmed[msg.sender], 'Transaction already confirmed');\r\n        _;\r\n    }\r\n    \r\n    \r\n    address[] public owners;\r\n    mapping(address => bool) public isOwner;\r\n    uint public numConfirmationsRequired;\r\n    \r\n    constructor(address[] memory _owners, uint _numConfirmationsRequired) public {\r\n        require(_owners.length > 0, \"owners required\");\r\n        require(\r\n            _numConfirmationsRequired > 0 && _numConfirmationsRequired <= _owners.length,\r\n            \"invalid number of required confirmations\"\r\n        );\r\n\r\n        for (uint i = 0; i < _owners.length; i++) {\r\n            address owner = _owners[i];\r\n\r\n            require(owner != address(0), \"invalid owner\");\r\n            require(!isOwner[owner], \"owner not unique\");\r\n\r\n            isOwner[owner] = true;\r\n            owners.push(owner);\r\n        }\r\n\r\n        numConfirmationsRequired = _numConfirmationsRequired;\r\n    }\r\n    \r\n    function() payable external {\r\n        emit Deposit(msg.sender, msg.value, address(this).balance);\r\n    }\r\n    \r\n    function submitTransaction(address _to, uint _value, bytes memory _data) \r\n        public payable onlyOwner \r\n    {\r\n        uint txIndex = transactions.length;\r\n        \r\n        transactions.push(Transaction({\r\n            to: _to,\r\n            value: _value,\r\n            data: _data,\r\n            executed: false,\r\n            numConfirmations: 0\r\n            }));\r\n            \r\n        emit SubmitTransaction(msg.sender, txIndex, _to, _value, _data);\r\n    }\r\n    \r\n    function confirmTransaction(uint _txIndex) \r\n        public \r\n        onlyOwner\r\n        txExists(_txIndex)\r\n        notExecuted(_txIndex)\r\n        notConfirmed(_txIndex)\r\n    {\r\n        Transaction storage transaction = transactions[_txIndex];\r\n\r\n        transaction.isConfirmed[msg.sender] = true;\r\n        transaction.numConfirmations++;\r\n        \r\n        emit ConfirmTransaction(msg.sender, _txIndex);\r\n    }\r\n    \r\n    function executeTransaction(uint _txIndex) \r\n        public\r\n        onlyOwner\r\n        txExists(_txIndex)\r\n        notExecuted(_txIndex)\r\n    {\r\n        Transaction storage transaction = transactions[_txIndex];\r\n        require(transaction.numConfirmations >= numConfirmationsRequired, 'Cannot execute transaction');\r\n        transaction.executed = true;\r\n        \r\n        //double check this low level call\r\n        (bool success, ) = transaction.to.call.value(transaction.value)(transaction.data);\r\n        require(success, \"transaction failed\");\r\n        \r\n        emit ExecuteTransaction(msg.sender, _txIndex);\r\n    }\r\n\r\n    function revokeConfirmation(uint _txIndex) \r\n        public \r\n        onlyOwner \r\n        txExists(_txIndex) \r\n        notExecuted(_txIndex) \r\n    {\r\n        Transaction storage transaction = transactions[_txIndex];\r\n        \r\n        require(transaction.isConfirmed[msg.sender], 'Transaction not confirmed');\r\n        \r\n        transaction.isConfirmed[msg.sender] = false;\r\n        transaction.numConfirmations--;\r\n        \r\n        emit RevokeConfirmation(msg.sender, _txIndex);\r\n    }\r\n    \r\n    //confirmation getter for testing\r\n    function fetchConfirmations(uint _txIndex) public view returns(uint){\r\n        Transaction storage transaction = transactions[_txIndex];\r\n        uint conf = transaction.numConfirmations;\r\n        return conf;\r\n    }\r\n    \r\n    \r\n    \r\n}",
  "sourcePath": "C:/Users/15183/Documents/dapp-projects/multi-sig-wallet/contracts/MultiSigWallet.sol",
  "compiler": {
    "name": "solc",
    "version": "0.5.16+commit.9c3226ce.Emscripten.clang"
  },
  "schemaVersion": "3.3.1",
  "updatedAt": "2020-12-29T18:16:45.882Z",
  "devdoc": {
    "methods": {}
  },
  "userdoc": {
    "methods": {}
  }
}