{
  "contractName": "TestContract",
  "abi": [
    {
      "constant": true,
      "inputs": [],
      "name": "a",
      "outputs": [
        {
          "internalType": "uint256",
          "name": "",
          "type": "uint256"
        }
      ],
      "payable": false,
      "stateMutability": "view",
      "type": "function"
    },
    {
      "constant": false,
      "inputs": [
        {
          "internalType": "uint256",
          "name": "b",
          "type": "uint256"
        }
      ],
      "name": "callMeMaybe",
      "outputs": [],
      "payable": false,
      "stateMutability": "nonpayable",
      "type": "function"
    },
    {
      "constant": true,
      "inputs": [],
      "name": "fetchData",
      "outputs": [
        {
          "internalType": "bytes",
          "name": "",
          "type": "bytes"
        }
      ],
      "payable": false,
      "stateMutability": "view",
      "type": "function"
    }
  ],
  "bytecode": "0x608060405234801561001057600080fd5b506101fd806100206000396000f3fe608060405234801561001057600080fd5b50600436106100415760003560e01c80630dbe671f1461004657806367845e161461006457806373e09698146100e7575b600080fd5b61004e610115565b6040518082815260200191505060405180910390f35b61006c61011b565b6040518080602001828103825283818151815260200191508051906020019080838360005b838110156100ac578082015181840152602081019050610091565b50505050905090810190601f1680156100d95780820380516001836020036101000a031916815260200191505b509250505060405180910390f35b610113600480360360208110156100fd57600080fd5b81019080803590602001909291905050506101b6565b005b60005481565b60606102dc604051602401808261ffff1681526020019150506040516020818303038152906040527f73e09698000000000000000000000000000000000000000000000000000000007bffffffffffffffffffffffffffffffffffffffffffffffffffffffff19166020820180517bffffffffffffffffffffffffffffffffffffffffffffffffffffffff8381831617835250505050905090565b8060008082825401925050819055505056fea265627a7a7231582029e10828c1bff3d9d6fad7ac16db346ebb458b601b4598a22ce337edcedabb4d64736f6c63430005100032",
  "source": "pragma solidity ^0.5.16;\r\n\r\ncontract TestContract{\r\n\r\nuint public a;\r\n\r\nfunction callMeMaybe(uint b) public {\r\n    a += b;\r\n}\r\n\r\nfunction fetchData() public view returns(bytes memory){\r\n    return abi.encodeWithSignature('callMeMaybe(uint256)', 732);\r\n}\r\n\r\n\r\n\r\n}",
  "sourcePath": "C:/Users/15183/Documents/dapp-projects/multi-sig-wallet/contracts/TestContract.sol",
  "compiler": {
    "name": "solc",
    "version": "0.5.16+commit.9c3226ce.Emscripten.clang"
  },
  "schemaVersion": "3.3.1",
  "updatedAt": "2020-12-27T17:15:55.430Z",
  "devdoc": {
    "methods": {}
  },
  "userdoc": {
    "methods": {}
  }
}